{
  "contractName": "KNexus",
  "abi": [
    {
      "anonymous": false,
      "inputs": [
        {
          "indexed": false,
          "internalType": "uint32",
          "name": "status",
          "type": "uint32"
        },
        {
          "indexed": false,
          "internalType": "bytes",
          "name": "bucketName",
          "type": "bytes"
        }
      ],
      "name": "CreateBucketFailed",
      "type": "event"
    },
    {
      "anonymous": false,
      "inputs": [
        {
          "indexed": false,
          "internalType": "bytes",
          "name": "bucketName",
          "type": "bytes"
        },
        {
          "indexed": true,
          "internalType": "uint256",
          "name": "tokenId",
          "type": "uint256"
        }
      ],
      "name": "CreateBucketSuccess",
      "type": "event"
    },
    {
      "anonymous": false,
      "inputs": [
        {
          "indexed": false,
          "internalType": "uint32",
          "name": "status",
          "type": "uint32"
        },
        {
          "indexed": false,
          "internalType": "bytes",
          "name": "groupName",
          "type": "bytes"
        }
      ],
      "name": "CreateGroupFailed",
      "type": "event"
    },
    {
      "anonymous": false,
      "inputs": [
        {
          "indexed": false,
          "internalType": "bytes",
          "name": "groupName",
          "type": "bytes"
        },
        {
          "indexed": true,
          "internalType": "uint256",
          "name": "tokenId",
          "type": "uint256"
        }
      ],
      "name": "CreateGroupSuccess",
      "type": "event"
    },
    {
      "anonymous": false,
      "inputs": [
        {
          "indexed": false,
          "internalType": "uint32",
          "name": "status",
          "type": "uint32"
        },
        {
          "indexed": true,
          "internalType": "uint256",
          "name": "tokenId",
          "type": "uint256"
        }
      ],
      "name": "DeleteBucketFailed",
      "type": "event"
    },
    {
      "anonymous": false,
      "inputs": [
        {
          "indexed": true,
          "internalType": "uint256",
          "name": "tokenId",
          "type": "uint256"
        }
      ],
      "name": "DeleteBucketSuccess",
      "type": "event"
    },
    {
      "anonymous": false,
      "inputs": [
        {
          "indexed": false,
          "internalType": "uint32",
          "name": "status",
          "type": "uint32"
        },
        {
          "indexed": true,
          "internalType": "uint256",
          "name": "tokenId",
          "type": "uint256"
        }
      ],
      "name": "DeleteGroupFailed",
      "type": "event"
    },
    {
      "anonymous": false,
      "inputs": [
        {
          "indexed": true,
          "internalType": "uint256",
          "name": "tokenId",
          "type": "uint256"
        }
      ],
      "name": "DeleteGroupSuccess",
      "type": "event"
    },
    {
      "anonymous": false,
      "inputs": [
        {
          "indexed": false,
          "internalType": "uint32",
          "name": "status",
          "type": "uint32"
        },
        {
          "indexed": true,
          "internalType": "uint256",
          "name": "tokenId",
          "type": "uint256"
        }
      ],
      "name": "DeleteObjectFailed",
      "type": "event"
    },
    {
      "anonymous": false,
      "inputs": [
        {
          "indexed": true,
          "internalType": "uint256",
          "name": "tokenId",
          "type": "uint256"
        }
      ],
      "name": "DeleteObjectSuccess",
      "type": "event"
    },
    {
      "anonymous": false,
      "inputs": [
        {
          "indexed": false,
          "internalType": "uint8",
          "name": "version",
          "type": "uint8"
        }
      ],
      "name": "Initialized",
      "type": "event"
    },
    {
      "anonymous": false,
      "inputs": [
        {
          "indexed": true,
          "internalType": "uint256",
          "name": "id",
          "type": "uint256"
        },
        {
          "indexed": false,
          "internalType": "string",
          "name": "name",
          "type": "string"
        },
        {
          "indexed": false,
          "internalType": "string",
          "name": "description",
          "type": "string"
        },
        {
          "indexed": true,
          "internalType": "uint256",
          "name": "dataId",
          "type": "uint256"
        },
        {
          "indexed": false,
          "internalType": "uint256",
          "name": "groupId",
          "type": "uint256"
        },
        {
          "indexed": true,
          "internalType": "uint256",
          "name": "price",
          "type": "uint256"
        },
        {
          "indexed": false,
          "internalType": "bool",
          "name": "isAvailable",
          "type": "bool"
        },
        {
          "indexed": false,
          "internalType": "address",
          "name": "purchaser",
          "type": "address"
        }
      ],
      "name": "OrderCreated",
      "type": "event"
    },
    {
      "anonymous": false,
      "inputs": [
        {
          "indexed": true,
          "internalType": "uint256",
          "name": "id",
          "type": "uint256"
        }
      ],
      "name": "OrderPurchased",
      "type": "event"
    },
    {
      "anonymous": false,
      "inputs": [
        {
          "indexed": true,
          "internalType": "uint256",
          "name": "id",
          "type": "uint256"
        }
      ],
      "name": "OrderRemoved",
      "type": "event"
    },
    {
      "anonymous": false,
      "inputs": [
        {
          "indexed": true,
          "internalType": "address",
          "name": "previousOwner",
          "type": "address"
        },
        {
          "indexed": true,
          "internalType": "address",
          "name": "newOwner",
          "type": "address"
        }
      ],
      "name": "OwnershipTransferred",
      "type": "event"
    },
    {
      "anonymous": false,
      "inputs": [
        {
          "indexed": false,
          "internalType": "uint32",
          "name": "status",
          "type": "uint32"
        },
        {
          "indexed": true,
          "internalType": "uint256",
          "name": "tokenId",
          "type": "uint256"
        }
      ],
      "name": "UpdateGroupFailed",
      "type": "event"
    },
    {
      "anonymous": false,
      "inputs": [
        {
          "indexed": true,
          "internalType": "uint256",
          "name": "tokenId",
          "type": "uint256"
        }
      ],
      "name": "UpdateGroupSuccess",
      "type": "event"
    },
    {
      "inputs": [],
      "name": "ERROR_DATA_NOT_ONSHELF",
      "outputs": [
        {
          "internalType": "string",
          "name": "",
          "type": "string"
        }
      ],
      "stateMutability": "view",
      "type": "function"
    },
    {
      "inputs": [],
      "name": "ERROR_GROUP_NOT_EXISTED",
      "outputs": [
        {
          "internalType": "string",
          "name": "",
          "type": "string"
        }
      ],
      "stateMutability": "view",
      "type": "function"
    },
    {
      "inputs": [],
      "name": "ERROR_INSUFFICIENT_VALUE",
      "outputs": [
        {
          "internalType": "string",
          "name": "",
          "type": "string"
        }
      ],
      "stateMutability": "view",
      "type": "function"
    },
    {
      "inputs": [],
      "name": "ERROR_INVALID_CALLER",
      "outputs": [
        {
          "internalType": "string",
          "name": "",
          "type": "string"
        }
      ],
      "stateMutability": "view",
      "type": "function"
    },
    {
      "inputs": [],
      "name": "ERROR_INVALID_NAME",
      "outputs": [
        {
          "internalType": "string",
          "name": "",
          "type": "string"
        }
      ],
      "stateMutability": "view",
      "type": "function"
    },
    {
      "inputs": [],
      "name": "ERROR_INVALID_OPERATION",
      "outputs": [
        {
          "internalType": "string",
          "name": "",
          "type": "string"
        }
      ],
      "stateMutability": "view",
      "type": "function"
    },
    {
      "inputs": [],
      "name": "ERROR_INVALID_PRICE",
      "outputs": [
        {
          "internalType": "string",
          "name": "",
          "type": "string"
        }
      ],
      "stateMutability": "view",
      "type": "function"
    },
    {
      "inputs": [],
      "name": "ERROR_INVALID_RESOURCE",
      "outputs": [
        {
          "internalType": "string",
          "name": "",
          "type": "string"
        }
      ],
      "stateMutability": "view",
      "type": "function"
    },
    {
      "inputs": [],
      "name": "ERROR_NOT_ENOUGH_VALUE",
      "outputs": [
        {
          "internalType": "string",
          "name": "",
          "type": "string"
        }
      ],
      "stateMutability": "view",
      "type": "function"
    },
    {
      "inputs": [],
      "name": "ERROR_RESOURCE_EXISTED",
      "outputs": [
        {
          "internalType": "string",
          "name": "",
          "type": "string"
        }
      ],
      "stateMutability": "view",
      "type": "function"
    },
    {
      "inputs": [],
      "name": "RESOURCE_BUCKET",
      "outputs": [
        {
          "internalType": "uint8",
          "name": "",
          "type": "uint8"
        }
      ],
      "stateMutability": "view",
      "type": "function"
    },
    {
      "inputs": [],
      "name": "RESOURCE_GROUP",
      "outputs": [
        {
          "internalType": "uint8",
          "name": "",
          "type": "uint8"
        }
      ],
      "stateMutability": "view",
      "type": "function"
    },
    {
      "inputs": [],
      "name": "RESOURCE_OBJECT",
      "outputs": [
        {
          "internalType": "uint8",
          "name": "",
          "type": "uint8"
        }
      ],
      "stateMutability": "view",
      "type": "function"
    },
    {
      "inputs": [],
      "name": "STATUS_FAILED",
      "outputs": [
        {
          "internalType": "uint32",
          "name": "",
          "type": "uint32"
        }
      ],
      "stateMutability": "view",
      "type": "function"
    },
    {
      "inputs": [],
      "name": "STATUS_SUCCESS",
      "outputs": [
        {
          "internalType": "uint32",
          "name": "",
          "type": "uint32"
        }
      ],
      "stateMutability": "view",
      "type": "function"
    },
    {
      "inputs": [],
      "name": "STATUS_UNEXPECTED",
      "outputs": [
        {
          "internalType": "uint32",
          "name": "",
          "type": "uint32"
        }
      ],
      "stateMutability": "view",
      "type": "function"
    },
    {
      "inputs": [],
      "name": "TYPE_CREATE",
      "outputs": [
        {
          "internalType": "uint8",
          "name": "",
          "type": "uint8"
        }
      ],
      "stateMutability": "view",
      "type": "function"
    },
    {
      "inputs": [],
      "name": "TYPE_DELETE",
      "outputs": [
        {
          "internalType": "uint8",
          "name": "",
          "type": "uint8"
        }
      ],
      "stateMutability": "view",
      "type": "function"
    },
    {
      "inputs": [],
      "name": "TYPE_UPDATE",
      "outputs": [
        {
          "internalType": "uint8",
          "name": "",
          "type": "uint8"
        }
      ],
      "stateMutability": "view",
      "type": "function"
    },
    {
      "inputs": [],
      "name": "UPDATE_ADD",
      "outputs": [
        {
          "internalType": "uint8",
          "name": "",
          "type": "uint8"
        }
      ],
      "stateMutability": "view",
      "type": "function"
    },
    {
      "inputs": [],
      "name": "UPDATE_REMOVE",
      "outputs": [
        {
          "internalType": "uint8",
          "name": "",
          "type": "uint8"
        }
      ],
      "stateMutability": "view",
      "type": "function"
    },
    {
      "inputs": [],
      "name": "bucketHub",
      "outputs": [
        {
          "internalType": "address",
          "name": "",
          "type": "address"
        }
      ],
      "stateMutability": "view",
      "type": "function"
    },
    {
      "inputs": [],
      "name": "bucketToken",
      "outputs": [
        {
          "internalType": "address",
          "name": "",
          "type": "address"
        }
      ],
      "stateMutability": "view",
      "type": "function"
    },
    {
      "inputs": [],
      "name": "callbackGasLimit",
      "outputs": [
        {
          "internalType": "uint256",
          "name": "",
          "type": "uint256"
        }
      ],
      "stateMutability": "view",
      "type": "function"
    },
    {
      "inputs": [],
      "name": "crossChain",
      "outputs": [
        {
          "internalType": "address",
          "name": "",
          "type": "address"
        }
      ],
      "stateMutability": "view",
      "type": "function"
    },
    {
      "inputs": [],
      "name": "failureHandleStrategy",
      "outputs": [
        {
          "internalType": "enum CmnStorage.FailureHandleStrategy",
          "name": "",
          "type": "uint8"
        }
      ],
      "stateMutability": "view",
      "type": "function"
    },
    {
      "inputs": [],
      "name": "groupHub",
      "outputs": [
        {
          "internalType": "address",
          "name": "",
          "type": "address"
        }
      ],
      "stateMutability": "view",
      "type": "function"
    },
    {
      "inputs": [],
      "name": "groupToken",
      "outputs": [
        {
          "internalType": "address",
          "name": "",
          "type": "address"
        }
      ],
      "stateMutability": "view",
      "type": "function"
    },
    {
      "inputs": [],
      "name": "memberToken",
      "outputs": [
        {
          "internalType": "address",
          "name": "",
          "type": "address"
        }
      ],
      "stateMutability": "view",
      "type": "function"
    },
    {
      "inputs": [],
      "name": "objectHub",
      "outputs": [
        {
          "internalType": "address",
          "name": "",
          "type": "address"
        }
      ],
      "stateMutability": "view",
      "type": "function"
    },
    {
      "inputs": [],
      "name": "objectToken",
      "outputs": [
        {
          "internalType": "address",
          "name": "",
          "type": "address"
        }
      ],
      "stateMutability": "view",
      "type": "function"
    },
    {
      "inputs": [
        {
          "internalType": "address",
          "name": "",
          "type": "address"
        }
      ],
      "name": "operators",
      "outputs": [
        {
          "internalType": "bool",
          "name": "",
          "type": "bool"
        }
      ],
      "stateMutability": "view",
      "type": "function"
    },
    {
      "inputs": [],
      "name": "orderCount",
      "outputs": [
        {
          "internalType": "uint256",
          "name": "",
          "type": "uint256"
        }
      ],
      "stateMutability": "view",
      "type": "function"
    },
    {
      "inputs": [
        {
          "internalType": "uint256",
          "name": "",
          "type": "uint256"
        }
      ],
      "name": "orders",
      "outputs": [
        {
          "internalType": "uint256",
          "name": "id",
          "type": "uint256"
        },
        {
          "internalType": "address",
          "name": "creator",
          "type": "address"
        },
        {
          "internalType": "string",
          "name": "name",
          "type": "string"
        },
        {
          "internalType": "string",
          "name": "description",
          "type": "string"
        },
        {
          "internalType": "uint256",
          "name": "dataId",
          "type": "uint256"
        },
        {
          "internalType": "uint256",
          "name": "groupId",
          "type": "uint256"
        },
        {
          "internalType": "uint256",
          "name": "price",
          "type": "uint256"
        },
        {
          "internalType": "bool",
          "name": "isAvailable",
          "type": "bool"
        },
        {
          "internalType": "address",
          "name": "purchaser",
          "type": "address"
        }
      ],
      "stateMutability": "view",
      "type": "function"
    },
    {
      "inputs": [],
      "name": "owner",
      "outputs": [
        {
          "internalType": "address",
          "name": "",
          "type": "address"
        }
      ],
      "stateMutability": "view",
      "type": "function"
    },
    {
      "inputs": [],
      "name": "paymentAddress",
      "outputs": [
        {
          "internalType": "address",
          "name": "",
          "type": "address"
        }
      ],
      "stateMutability": "view",
      "type": "function"
    },
    {
      "inputs": [],
      "name": "refundAddress",
      "outputs": [
        {
          "internalType": "address",
          "name": "",
          "type": "address"
        }
      ],
      "stateMutability": "view",
      "type": "function"
    },
    {
      "inputs": [
        {
          "internalType": "string",
          "name": "",
          "type": "string"
        }
      ],
      "name": "seriesId",
      "outputs": [
        {
          "internalType": "uint256",
          "name": "",
          "type": "uint256"
        }
      ],
      "stateMutability": "view",
      "type": "function"
    },
    {
      "inputs": [
        {
          "internalType": "uint256",
          "name": "",
          "type": "uint256"
        }
      ],
      "name": "seriesName",
      "outputs": [
        {
          "internalType": "string",
          "name": "",
          "type": "string"
        }
      ],
      "stateMutability": "view",
      "type": "function"
    },
    {
      "inputs": [
        {
          "internalType": "address",
          "name": "_crossChain",
          "type": "address"
        },
        {
          "internalType": "address",
          "name": "_bucketHub",
          "type": "address"
        },
        {
          "internalType": "address",
          "name": "_objectHub",
          "type": "address"
        },
        {
          "internalType": "address",
          "name": "_groupHub",
          "type": "address"
        },
        {
          "internalType": "address",
          "name": "_paymentAddress",
          "type": "address"
        },
        {
          "internalType": "uint256",
          "name": "_callbackGasLimit",
          "type": "uint256"
        },
        {
          "internalType": "address",
          "name": "_refundAddress",
          "type": "address"
        },
        {
          "internalType": "uint8",
          "name": "_failureHandleStrategy",
          "type": "uint8"
        },
        {
          "internalType": "address",
          "name": "_owner",
          "type": "address"
        }
      ],
      "name": "initialize",
      "outputs": [],
      "stateMutability": "nonpayable",
      "type": "function"
    },
    {
      "inputs": [
        {
          "internalType": "uint32",
          "name": "status",
          "type": "uint32"
        },
        {
          "internalType": "uint8",
          "name": "resoureceType",
          "type": "uint8"
        },
        {
          "internalType": "uint8",
          "name": "operationType",
          "type": "uint8"
        },
        {
          "internalType": "uint256",
          "name": "resourceId",
          "type": "uint256"
        },
        {
          "internalType": "bytes",
          "name": "callbackData",
          "type": "bytes"
        }
      ],
      "name": "greenfieldCall",
      "outputs": [],
      "stateMutability": "nonpayable",
      "type": "function"
    },
    {
      "inputs": [
        {
          "internalType": "string",
          "name": "name",
          "type": "string"
        },
        {
          "internalType": "enum BucketStorage.BucketVisibilityType",
          "name": "visibility",
          "type": "uint8"
        },
        {
          "internalType": "uint64",
          "name": "chargedReadQuota",
          "type": "uint64"
        },
        {
          "internalType": "address",
          "name": "spAddress",
          "type": "address"
        },
        {
          "internalType": "uint256",
          "name": "expireHeight",
          "type": "uint256"
        },
        {
          "internalType": "bytes",
          "name": "sig",
          "type": "bytes"
        }
      ],
      "name": "createSeries",
      "outputs": [],
      "stateMutability": "payable",
      "type": "function"
    },
    {
      "inputs": [
        {
          "internalType": "string",
          "name": "name",
          "type": "string"
        },
        {
          "internalType": "uint256",
          "name": "tokenId",
          "type": "uint256"
        }
      ],
      "name": "registerSeries",
      "outputs": [],
      "stateMutability": "nonpayable",
      "type": "function"
    },
    {
      "inputs": [
        {
          "internalType": "string",
          "name": "name",
          "type": "string"
        }
      ],
      "name": "createGroup",
      "outputs": [],
      "stateMutability": "payable",
      "type": "function"
    },
    {
      "inputs": [
        {
          "internalType": "string",
          "name": "name",
          "type": "string"
        },
        {
          "internalType": "string",
          "name": "description",
          "type": "string"
        },
        {
          "internalType": "uint256",
          "name": "_dataId",
          "type": "uint256"
        },
        {
          "internalType": "uint256",
          "name": "_groupId",
          "type": "uint256"
        },
        {
          "internalType": "uint256",
          "name": "price",
          "type": "uint256"
        }
      ],
      "name": "createOrder",
      "outputs": [],
      "stateMutability": "nonpayable",
      "type": "function"
    },
    {
      "inputs": [
        {
          "internalType": "uint256",
          "name": "id",
          "type": "uint256"
        }
      ],
      "name": "getOrder",
      "outputs": [
        {
          "internalType": "address",
          "name": "",
          "type": "address"
        },
        {
          "internalType": "string",
          "name": "",
          "type": "string"
        },
        {
          "internalType": "string",
          "name": "",
          "type": "string"
        },
        {
          "internalType": "uint256",
          "name": "",
          "type": "uint256"
        },
        {
          "internalType": "uint256",
          "name": "",
          "type": "uint256"
        },
        {
          "internalType": "bool",
          "name": "",
          "type": "bool"
        }
      ],
      "stateMutability": "view",
      "type": "function"
    },
    {
      "inputs": [
        {
          "internalType": "uint256",
          "name": "dataId",
          "type": "uint256"
        }
      ],
      "name": "isPublished",
      "outputs": [
        {
          "internalType": "bool",
          "name": "",
          "type": "bool"
        }
      ],
      "stateMutability": "view",
      "type": "function"
    },
    {
      "inputs": [],
      "name": "getAllOrders",
      "outputs": [
        {
          "components": [
            {
              "internalType": "uint256",
              "name": "id",
              "type": "uint256"
            },
            {
              "internalType": "address",
              "name": "creator",
              "type": "address"
            },
            {
              "internalType": "string",
              "name": "name",
              "type": "string"
            },
            {
              "internalType": "string",
              "name": "description",
              "type": "string"
            },
            {
              "internalType": "uint256",
              "name": "dataId",
              "type": "uint256"
            },
            {
              "internalType": "uint256",
              "name": "groupId",
              "type": "uint256"
            },
            {
              "internalType": "uint256",
              "name": "price",
              "type": "uint256"
            },
            {
              "internalType": "bool",
              "name": "isAvailable",
              "type": "bool"
            },
            {
              "internalType": "address",
              "name": "purchaser",
              "type": "address"
            }
          ],
          "internalType": "struct KNexus.Order[]",
          "name": "",
          "type": "tuple[]"
        }
      ],
      "stateMutability": "view",
      "type": "function"
    },
    {
      "inputs": [
        {
          "internalType": "uint256",
          "name": "id",
          "type": "uint256"
        }
      ],
      "name": "removeOrder",
      "outputs": [],
      "stateMutability": "nonpayable",
      "type": "function"
    },
    {
      "inputs": [
        {
          "internalType": "uint256",
          "name": "id",
          "type": "uint256"
        }
      ],
      "name": "purchaseOrder",
      "outputs": [],
      "stateMutability": "payable",
      "type": "function"
    },
    {
      "inputs": [
        {
          "internalType": "uint8",
          "name": "resoureceType",
          "type": "uint8"
        }
      ],
      "name": "retryPackage",
      "outputs": [],
      "stateMutability": "nonpayable",
      "type": "function"
    },
    {
      "inputs": [
        {
          "internalType": "uint8",
          "name": "resoureceType",
          "type": "uint8"
        }
      ],
      "name": "skipPackage",
      "outputs": [],
      "stateMutability": "nonpayable",
      "type": "function"
    },
    {
      "inputs": [
        {
          "internalType": "address",
          "name": "newOperator",
          "type": "address"
        }
      ],
      "name": "addOperator",
      "outputs": [],
      "stateMutability": "nonpayable",
      "type": "function"
    },
    {
      "inputs": [
        {
          "internalType": "address",
          "name": "operator",
          "type": "address"
        }
      ],
      "name": "removeOperator",
      "outputs": [],
      "stateMutability": "nonpayable",
      "type": "function"
    }
  ],
  "bytecode": "0x608060405234801561001057600080fd5b50613887806100206000396000f3fe6080604052600436106103345760003560e01c806391c087c2116101ab578063c8b01e6f116100f7578063e52a671811610095578063edabb0a31161006f578063edabb0a314610a34578063f2223c0214610a49578063f280023914610a5e578063fdd562b814610a7357600080fd5b8063e52a6718146109dd578063e55e958714610a0a578063e844911614610a1f57600080fd5b8063d09ef241116100d1578063d09ef2411461094b578063d6674f601461097d578063d99d67e81461099d578063dc2ddcae146109ca57600080fd5b8063c8b01e6f146108e9578063cc65cc4a146108fe578063ce1ddb6c1461091e57600080fd5b8063a85c38ef11610164578063ae31962b1161013e578063ae31962b1461087c578063b32f787b1461065c578063b41fdef41461089c578063b4627d35146108c957600080fd5b8063a85c38ef146107fa578063ab8e74e81461082f578063ac8a584a1461085c57600080fd5b806391c087c21461074557806394687c32146107655780639645337a146107855780639870d7fe146107a55780639be9e0f7146107c5578063a7136732146107e557600080fd5b80635cb54384116102855780637bea0d1c116102235780638d29500e116101fd5780638d29500e146106ad5780638da5cb5b146106e55780639012d5a0146107055780639142d7fb1461072557600080fd5b80637bea0d1c1461063a578063838801221461065c5780638855e0921461068357600080fd5b80636495b2281161025f5780636495b228146105ba578063709810cc146105cd57806375693e29146105ed5780637b156fb51461061a57600080fd5b80635cb543841461055a57806360e753031461057a578063633423be1461059a57600080fd5b806324f74697116102f2578063459af3aa116102cc578063459af3aa146104c75780634917db66146104e757806350704a501461050d57806357c1941b1461053a57600080fd5b806324f7469714610456578063362c3ab81461046c57806339a252901461049957600080fd5b8062b75fc6146103395780630cb61f6c1461034e57806313e7c9d81461038b578063189e8102146103cb5780631a8596a3146104055780632453ffa814610432575b600080fd5b61034c610347366004612b45565b610a88565b005b34801561035a57600080fd5b5060025461036e906001600160a01b031681565b6040516001600160a01b0390911681526020015b60405180910390f35b34801561039757600080fd5b506103bb6103a6366004612c02565b60086020526000908152604090205460ff1681565b6040519015158152602001610382565b3480156103d757600080fd5b506103f8604051806040016040528060018152602001601960f91b81525081565b6040516103829190612c76565b34801561041157600080fd5b506103f8604051806040016040528060018152602001603960f81b81525081565b34801561043e57600080fd5b5061044860105481565b604051908152602001610382565b34801561046257600080fd5b5061044860015481565b34801561047857600080fd5b506103f8604051806040016040528060018152602001601b60f91b81525081565b3480156104a557600080fd5b506002546104ba90600160a01b900460ff1681565b6040516103829190612cbd565b3480156104d357600080fd5b5061034c6104e2366004612ce1565b610bfb565b3480156104f357600080fd5b5060005461036e906201000090046001600160a01b031681565b34801561051957600080fd5b506103f8604051806040016040528060018152602001603160f81b81525081565b34801561054657600080fd5b506103f8610555366004612d6b565b610d25565b34801561056657600080fd5b50600c5461036e906001600160a01b031681565b34801561058657600080fd5b5061034c610595366004612d84565b610dbf565b3480156105a657600080fd5b5060045461036e906001600160a01b031681565b61034c6105c8366004612d6b565b61118b565b3480156105d957600080fd5b5060035461036e906001600160a01b031681565b3480156105f957600080fd5b506103f8604051806040016040528060018152602001600d60fa1b81525081565b34801561062657600080fd5b506103bb610635366004612d6b565b61138f565b34801561064657600080fd5b5061064f6113dd565b6040516103829190612e35565b34801561066857600080fd5b50610671600481565b60405160ff9091168152602001610382565b34801561068f57600080fd5b50610698600081565b60405163ffffffff9091168152602001610382565b3480156106b957600080fd5b506104486106c8366004612fbe565b8051602081830181018051600e8252928201919093012091525481565b3480156106f157600080fd5b5060075461036e906001600160a01b031681565b34801561071157600080fd5b5061034c610720366004612ffb565b611680565b34801561073157600080fd5b5060065461036e906001600160a01b031681565b34801561075157600080fd5b5060055461036e906001600160a01b031681565b34801561077157600080fd5b5061034c61078036600461307a565b611812565b34801561079157600080fd5b5061034c6107a0366004612d6b565b6119fe565b3480156107b157600080fd5b5061034c6107c0366004612c02565b611b0f565b3480156107d157600080fd5b50600b5461036e906001600160a01b031681565b3480156107f157600080fd5b50610671600081565b34801561080657600080fd5b5061081a610815366004612d6b565b611bcb565b604051610382999897969594939291906130c6565b34801561083b57600080fd5b506103f8604051806040016040528060018152602001600760fb1b81525081565b34801561086857600080fd5b5061034c610877366004612c02565b611d3a565b34801561088857600080fd5b50600a5461036e906001600160a01b031681565b3480156108a857600080fd5b506103f8604051806040016040528060018152602001603760f81b81525081565b3480156108d557600080fd5b5061034c6108e436600461313a565b611df3565b3480156108f557600080fd5b50610698600181565b34801561090a57600080fd5b5061034c61091936600461313a565b611e32565b34801561092a57600080fd5b506103f8604051806040016040528060018152602001603360f81b81525081565b34801561095757600080fd5b5061096b610966366004612d6b565b611e6e565b60405161038296959493929190613155565b34801561098957600080fd5b5060095461036e906001600160a01b031681565b3480156109a957600080fd5b506103f8604051806040016040528060018152602001603560f81b81525081565b61034c6109d8366004612fbe565b612018565b3480156109e957600080fd5b506103f8604051806040016040528060018152602001600360fc1b81525081565b348015610a1657600080fd5b50610671600181565b348015610a2b57600080fd5b50610671600381565b348015610a4057600080fd5b50610671600281565b348015610a5557600080fd5b50610698600281565b348015610a6a57600080fd5b50610671600581565b348015610a7f57600080fd5b50610671600681565b60008888905011604051806040016040528060018152602001600d60fa1b815250604051602001610ab991906131ac565b60405160208183030381529060405290610aef5760405162461bcd60e51b8152600401610ae69190612c76565b60405180910390fd5b50600e8888604051610b029291906131da565b908152602001604051809103902054600014604051806040016040528060018152602001603560f81b815250604051602001610b3e91906131ac565b60405160208183030381529060405290610b6b5760405162461bcd60e51b8152600401610ae69190612c76565b50600088888080601f01602080910402602001604051908101604052809392919081815260200183838082843760009201919091525050604080516020601f8e018190048102820181019092528c8152939450610bf09333935091508c908c90819084018382808284376000920191909152508c92508b91508a905089898989612028565b505050505050505050565b600060029054906101000a90046001600160a01b03166001600160a01b0316336001600160a01b031614604051806040016040528060018152602001600360fc1b815250604051602001610c4f91906131ac565b60405160208183030381529060405290610c7c5760405162461bcd60e51b8152600401610ae69190612c76565b5060031960ff861601610c9b57610c96868585858561223a565b610d1d565b60041960ff861601610cb457610c96868585858561230a565b60051960ff861601610ccd57610c968685858585612381565b604051806040016040528060018152602001603160f81b815250604051602001610cf791906131ac565b60408051601f198184030181529082905262461bcd60e51b8252610ae691600401612c76565b505050505050565b600d6020526000908152604090208054610d3e906131ea565b80601f0160208091040260200160405190810160405280929190818152602001828054610d6a906131ea565b8015610db75780601f10610d8c57610100808354040283529160200191610db7565b820191906000526020600020905b815481529060010190602001808311610d9a57829003601f168201915b505050505081565b600054610100900460ff1615808015610ddf5750600054600160ff909116105b80610df95750303b158015610df9575060005460ff166001145b610e5c5760405162461bcd60e51b815260206004820152602e60248201527f496e697469616c697a61626c653a20636f6e747261637420697320616c72656160448201526d191e481a5b9a5d1a585b1a5e995960921b6064820152608401610ae6565b6000805460ff191660011790558015610e7f576000805461ff0019166101001790555b60006001600160a01b0316826001600160a01b03161415604051806040016040528060018152602001600360fc1b815250604051602001610ec0919061321e565b60405160208183030381529060405290610eed5760405162461bcd60e51b8152600401610ae69190612c76565b50610ef782612492565b886001600160a01b03166377a714ae6040518163ffffffff1660e01b8152600401602060405180830381865afa158015610f35573d6000803e3d6000fd5b505050506040513d601f19601f82011682018060405250810190610f599190613253565b600960006101000a8154816001600160a01b0302191690836001600160a01b03160217905550876001600160a01b03166377a714ae6040518163ffffffff1660e01b8152600401602060405180830381865afa158015610fbd573d6000803e3d6000fd5b505050506040513d601f19601f82011682018060405250810190610fe19190613253565b600a60006101000a8154816001600160a01b0302191690836001600160a01b03160217905550866001600160a01b03166377a714ae6040518163ffffffff1660e01b8152600401602060405180830381865afa158015611045573d6000803e3d6000fd5b505050506040513d601f19601f820116820180604052508101906110699190613253565b600b60006101000a8154816001600160a01b0302191690836001600160a01b03160217905550866001600160a01b03166373ee45086040518163ffffffff1660e01b8152600401602060405180830381865afa1580156110cd573d6000803e3d6000fd5b505050506040513d601f19601f820116820180604052508101906110f19190613253565b600c80546001600160a01b0319166001600160a01b039290921691909117905561111d8a8686866124ee565b611127898761259b565b611130876125f0565b61113988612639565b801561117f576000805461ff0019169055604051600181527f7f26b83ff96e1f2b6a682f133852f6798a09c465da95921460cefb38474024989060200160405180910390a15b50505050505050505050565b601054811115801561119d5750600081115b6111b95760405162461bcd60e51b8152600401610ae690613270565b6000818152600f60205260409020600781015460ff166112145760405162461bcd60e51b81526020600482015260166024820152754f72646572206973206e6f7420617661696c61626c6560501b6044820152606401610ae6565b806006015434146112675760405162461bcd60e51b815260206004820152601860248201527f496e636f7272656374207061796d656e7420616d6f756e7400000000000000006044820152606401610ae6565b6007810180546001600160a81b03191661010033021790556040805160018082528183019092526000916020808301908036833701905050905033816000815181106112b5576112b561329a565b6001600160a01b0392831660209182029290920101526001830154600684015460405160009392909216918381818185875af1925050503d8060008114611318576040519150601f19603f3d011682016040523d82523d6000602084013e61131d565b606091505b505090508061135e5760405162461bcd60e51b815260206004820152600d60248201526c1c1d5c98da185cd94819985a5b609a1b6044820152606401610ae6565b60405184907f45cfeb17c0aa5377436ef6f540fc1cda974b756af0e0eb528d2bbcfb5f0d747d90600090a250505050565b600060015b60105481116113d4576000818152600f6020526040902060048101548490036113c1575060019392505050565b50806113cc816132c6565b915050611394565b50600092915050565b6060600060105467ffffffffffffffff8111156113fc576113fc612f1b565b60405190808252806020026020018201604052801561149057816020015b61147d6040518061012001604052806000815260200160006001600160a01b03168152602001606081526020016060815260200160008152602001600081526020016000815260200160001515815260200160006001600160a01b031681525090565b81526020019060019003908161141a5790505b50905060015b601054811161167a576000818152600f60209081526040918290208251610120810184528154815260018201546001600160a01b03169281019290925260028101805492939192918401916114ea906131ea565b80601f0160208091040260200160405190810160405280929190818152602001828054611516906131ea565b80156115635780601f1061153857610100808354040283529160200191611563565b820191906000526020600020905b81548152906001019060200180831161154657829003601f168201915b5050505050815260200160038201805461157c906131ea565b80601f01602080910402602001604051908101604052809291908181526020018280546115a8906131ea565b80156115f55780601f106115ca576101008083540402835291602001916115f5565b820191906000526020600020905b8154815290600101906020018083116115d857829003601f168201915b505050918352505060048201546020820152600582015460408201526006820154606082015260079091015460ff81161515608083015261010090046001600160a01b031660a0909101528261164c6001846132df565b8151811061165c5761165c61329a565b60200260200101819052508080611672906132c6565b915050611496565b50919050565b60108054906000611690836132c6565b909155505060408051610120810182526010548082523360208084019182528385018a8152606085018a90526080850189905260a0850188905260c08501879052600160e0860181905260006101008701819052948552600f9092529490922083518155905191810180546001600160a01b0319166001600160a01b0390931692909217909155915190918291600282019061172c908261333e565b5060608201516003820190611741908261333e565b50608082810151600483015560a080840151600584015560c080850151600685015560e08086015160079095018054610100978801516001600160a01b03168802610100600160a81b0319971515979097166001600160a81b0319909116179590951790945585015191850151601054604080880151606089015194890151968901519789015191519597939692957f4868a8fe831da32671337c607f7da08cc8882b76be04a08f6d58b13b6dd77fc39561180295929490939092916133fe565b60405180910390a4505050505050565b6009546040516331a9108f60e11b81526004810183905233916001600160a01b031690636352211e90602401602060405180830381865afa15801561185b573d6000803e3d6000fd5b505050506040513d601f19601f8201168201806040525081019061187f9190613253565b6001600160a01b031614604051806040016040528060018152602001600360fc1b8152506040516020016118b391906131ac565b604051602081830303815290604052906118e05760405162461bcd60e51b8152600401610ae69190612c76565b5060008383905011604051806040016040528060018152602001600d60fa1b81525060405160200161191291906131ac565b6040516020818303038152906040529061193f5760405162461bcd60e51b8152600401610ae69190612c76565b50600e83836040516119529291906131da565b908152602001604051809103902054600014604051806040016040528060018152602001603560f81b81525060405160200161198e91906131ac565b604051602081830303815290604052906119bb5760405162461bcd60e51b8152600401610ae69190612c76565b506000818152600d602052604090206119d583858361344a565b5080600e84846040516119e99291906131da565b90815260405190819003602001902055505050565b6010548111158015611a105750600081115b611a2c5760405162461bcd60e51b8152600401610ae690613270565b6000818152600f60205260409020600781015460ff16611a875760405162461bcd60e51b81526020600482015260166024820152754f72646572206973206e6f7420617661696c61626c6560501b6044820152606401610ae6565b60018101546001600160a01b03163314611ad45760405162461bcd60e51b815260206004820152600e60248201526d34b73b30b634b21031b0b63632b960911b6044820152606401610ae6565b60078101805460ff1916905560405182907f2114a52d297f01ee99b38a96fbd79c650bf37e10c29e0967c6621187fbe2532290600090a25050565b6007546001600160a01b03163314611b635760405162461bcd60e51b815260206004820152601760248201527631b0b63632b91034b9903737ba103a34329037bbb732b960491b6044820152606401610ae6565b6007546001600160a01b0316331480611b8b57503360009081526008602052604090205460ff165b611ba75760405162461bcd60e51b8152600401610ae69061350a565b6001600160a01b03166000908152600860205260409020805460ff19166001179055565b600f6020526000908152604090208054600182015460028301805492936001600160a01b0390921692611bfd906131ea565b80601f0160208091040260200160405190810160405280929190818152602001828054611c29906131ea565b8015611c765780601f10611c4b57610100808354040283529160200191611c76565b820191906000526020600020905b815481529060010190602001808311611c5957829003601f168201915b505050505090806003018054611c8b906131ea565b80601f0160208091040260200160405190810160405280929190818152602001828054611cb7906131ea565b8015611d045780601f10611cd957610100808354040283529160200191611d04565b820191906000526020600020905b815481529060010190602001808311611ce757829003601f168201915b505050506004830154600584015460068501546007909501549394919390925060ff81169061010090046001600160a01b031689565b6007546001600160a01b03163314611d8e5760405162461bcd60e51b815260206004820152601760248201527631b0b63632b91034b9903737ba103a34329037bbb732b960491b6044820152606401610ae6565b6007546001600160a01b0316331480611db657503360009081526008602052604090205460ff165b611dd25760405162461bcd60e51b8152600401610ae69061350a565b6001600160a01b03166000908152600860205260409020805460ff19169055565b60031960ff821601611e0a57611e07612682565b50565b60041960ff821601611e1e57611e076126ec565b60051960ff821601610ccd57611e0761273c565b60031960ff821601611e4657611e0761278c565b60041960ff821601611e5a57611e076127dc565b60051960ff821601610ccd57611e0761282c565b600060608060008060006010548711158015611e8a5750600087115b611ea65760405162461bcd60e51b8152600401610ae690613270565b6000878152600f6020526040902060018101546004820154600683015460078401546002850180546001600160a01b0390951694909360038701939092909160ff909116908590611ef6906131ea565b80601f0160208091040260200160405190810160405280929190818152602001828054611f22906131ea565b8015611f6f5780601f10611f4457610100808354040283529160200191611f6f565b820191906000526020600020905b815481529060010190602001808311611f5257829003601f168201915b50505050509450838054611f82906131ea565b80601f0160208091040260200160405190810160405280929190818152602001828054611fae906131ea565b8015611ffb5780601f10611fd057610100808354040283529160200191611ffb565b820191906000526020600020905b815481529060010190602001808311611fde57829003601f168201915b505050505093509650965096509650965096505091939550919395565b8061202433828061287c565b5050565b60006040518061012001604052808b6001600160a01b031681526020018a815260200189600281111561205d5761205d612c89565b8152602001600460009054906101000a90046001600160a01b03166001600160a01b03168152602001876001600160a01b0316815260200186815260200185858080601f016020809104026020016040519081016040528093929190818152602001838380828437600092018290525093855250505067ffffffffffffffff8a16602080840191909152604080518083018252838152938101939093528251608081018452308152600280546001600160a01b0381169383019390935294955091939192830191600160a01b90910460ff169081111561213f5761213f612c89565b8152602001849052905060006121536129ac565b905080341015604051806040016040528060018152602001603360f81b815250604051602001612183919061354d565b604051602081830303815290604052906121b05760405162461bcd60e51b8152600401610ae69190612c76565b5060035460015460405163c8e400c760e01b81526001600160a01b039092169163c8e400c79134916121e891889188906004016135da565b60206040518083038185885af1158015612206573d6000803e3d6000fd5b50505050506040513d601f19601f8201168201806040525081019061222b91906136de565b50505050505050505050505050565b60011960ff85160161228c57612287858484848080601f016020809104026020016040519081016040528093929190818152602001838380828437600092019190915250612ad292505050565b612303565b60021960ff8516016122d957612287858484848080601f016020809104026020016040519081016040528093929190818152602001838380828437600092019190915250612ad292505050565b604051806040016040528060018152602001601960f91b815250604051602001610cf7919061354d565b5050505050565b60021960ff85160161235757612287858484848080601f016020809104026020016040519081016040528093929190818152602001838380828437600092019190915250612ad292505050565b604051806040016040528060018152602001601960f91b815250604051602001610cf79190613700565b60011960ff8516016123ce57612287858484848080601f016020809104026020016040519081016040528093929190818152602001838380828437600092019190915250612ad292505050565b60021960ff85160161241b57612287858484848080601f016020809104026020016040519081016040528093929190818152602001838380828437600092019190915250612ad292505050565b60031960ff85160161246857612287858484848080601f016020809104026020016040519081016040528093929190818152602001838380828437600092019190915250612ad292505050565b604051806040016040528060018152602001601960f91b815250604051602001610cf79190613726565b6007546040516001600160a01b038084169216907f8be0079c531659141344cd1fd0a4f28419497f9722a3daafe3b4186f6b6457e090600090a3600780546001600160a01b0319166001600160a01b0392909216919091179055565b600054610100900460ff166125155760405162461bcd60e51b8152600401610ae690613758565b6000805462010000600160b01b031916620100006001600160a01b0387811691909102919091179091556001849055600280546001600160a01b03191691841691909117815560ff82169081111561256f5761256f612c89565b6002805460ff60a01b1916600160a01b838381111561259057612590612c89565b021790555050505050565b600054610100900460ff166125c25760405162461bcd60e51b8152600401610ae690613758565b600380546001600160a01b039384166001600160a01b03199182161790915560048054929093169116179055565b600054610100900460ff166126175760405162461bcd60e51b8152600401610ae690613758565b600680546001600160a01b0319166001600160a01b0392909216919091179055565b600054610100900460ff166126605760405162461bcd60e51b8152600401610ae690613758565b600580546001600160a01b0319166001600160a01b0392909216919091179055565b600360009054906101000a90046001600160a01b03166001600160a01b031663eca158cb6040518163ffffffff1660e01b8152600401600060405180830381600087803b1580156126d257600080fd5b505af11580156126e6573d6000803e3d6000fd5b50505050565b600560009054906101000a90046001600160a01b03166001600160a01b031663eca158cb6040518163ffffffff1660e01b8152600401600060405180830381600087803b1580156126d257600080fd5b600660009054906101000a90046001600160a01b03166001600160a01b031663eca158cb6040518163ffffffff1660e01b8152600401600060405180830381600087803b1580156126d257600080fd5b600360009054906101000a90046001600160a01b03166001600160a01b031663f1e583266040518163ffffffff1660e01b8152600401600060405180830381600087803b1580156126d257600080fd5b600560009054906101000a90046001600160a01b03166001600160a01b031663f1e583266040518163ffffffff1660e01b8152600401600060405180830381600087803b1580156126d257600080fd5b600660009054906101000a90046001600160a01b03166001600160a01b031663f1e583266040518163ffffffff1660e01b8152600401600060405180830381600087803b1580156126d257600080fd5b60408051608081018252308152600280546001600160a01b0381166020840152600093830191600160a01b90910460ff16908111156128bd576128bd612c89565b8152602001839052905060006128d16129ac565b905080341015604051806040016040528060018152602001603360f81b8152506040516020016129019190613726565b6040516020818303038152906040529061292e5760405162461bcd60e51b8152600401610ae69190612c76565b50600654600154604051630fd7521b60e01b81526001600160a01b0390921691630fd7521b913491612969918a918a919089906004016137a3565b60206040518083038185885af1158015612987573d6000803e3d6000fd5b50505050506040513d601f19601f82011682018060405250810190610d1d91906136de565b60008060008060029054906101000a90046001600160a01b03166001600160a01b03166354912a976040518163ffffffff1660e01b815260040160408051808303816000875af1158015612a04573d6000803e3d6000fd5b505050506040513d601f19601f82011682018060405250810190612a2891906137ea565b9150915060008060029054906101000a90046001600160a01b03166001600160a01b031663bf9032476040518163ffffffff1660e01b81526004016020604051808303816000875af1158015612a82573d6000803e3d6000fd5b505050506040513d601f19601f82011682018060405250810190612aa6919061380e565b905080600154612ab69190613827565b612ac0838561383e565b612aca919061383e565b935050505090565b505050565b60008083601f840112612ae957600080fd5b50813567ffffffffffffffff811115612b0157600080fd5b602083019150836020828501011115612b1957600080fd5b9250929050565b6001600160a01b0381168114611e0757600080fd5b8035612b4081612b20565b919050565b60008060008060008060008060c0898b031215612b6157600080fd5b883567ffffffffffffffff80821115612b7957600080fd5b612b858c838d01612ad7565b909a50985060208b0135915060038210612b9e57600080fd5b90965060408a0135908082168214612bb557600080fd5b819650612bc460608c01612b35565b955060808b0135945060a08b0135915080821115612be157600080fd5b50612bee8b828c01612ad7565b999c989b5096995094979396929594505050565b600060208284031215612c1457600080fd5b8135612c1f81612b20565b9392505050565b60005b83811015612c41578181015183820152602001612c29565b50506000910152565b60008151808452612c62816020860160208601612c26565b601f01601f19169290920160200192915050565b602081526000612c1f6020830184612c4a565b634e487b7160e01b600052602160045260246000fd5b60038110611e0757634e487b7160e01b600052602160045260246000fd5b60208101612cca83612c9f565b91905290565b803560ff81168114612b4057600080fd5b60008060008060008060a08789031215612cfa57600080fd5b863563ffffffff81168114612d0e57600080fd5b9550612d1c60208801612cd0565b9450612d2a60408801612cd0565b935060608701359250608087013567ffffffffffffffff811115612d4d57600080fd5b612d5989828a01612ad7565b979a9699509497509295939492505050565b600060208284031215612d7d57600080fd5b5035919050565b60008060008060008060008060006101208a8c031215612da357600080fd5b8935612dae81612b20565b985060208a0135612dbe81612b20565b975060408a0135612dce81612b20565b965060608a0135612dde81612b20565b955060808a0135612dee81612b20565b945060a08a0135935060c08a0135612e0581612b20565b9250612e1360e08b01612cd0565b91506101008a0135612e2481612b20565b809150509295985092959850929598565b60006020808301818452808551808352604092508286019150828160051b87010184880160005b83811015612f0d57603f19898403018552815180518452878101516001600160a01b0316888501528681015161012088860181905290612e9e82870182612c4a565b91505060608083015186830382880152612eb88382612c4a565b6080858101519089015260a0808601519089015260c0808601519089015260e080860151151590890152610100948501516001600160a01b031694909701939093525050509386019390860190600101612e5c565b509098975050505050505050565b634e487b7160e01b600052604160045260246000fd5b600082601f830112612f4257600080fd5b813567ffffffffffffffff80821115612f5d57612f5d612f1b565b604051601f8301601f19908116603f01168101908282118183101715612f8557612f85612f1b565b81604052838152866020858801011115612f9e57600080fd5b836020870160208301376000602085830101528094505050505092915050565b600060208284031215612fd057600080fd5b813567ffffffffffffffff811115612fe757600080fd5b612ff384828501612f31565b949350505050565b600080600080600060a0868803121561301357600080fd5b853567ffffffffffffffff8082111561302b57600080fd5b61303789838a01612f31565b9650602088013591508082111561304d57600080fd5b5061305a88828901612f31565b959895975050505060408401359360608101359360809091013592509050565b60008060006040848603121561308f57600080fd5b833567ffffffffffffffff8111156130a657600080fd5b6130b286828701612ad7565b909790965060209590950135949350505050565b8981526001600160a01b038981166020830152610120604083018190526000916130f28483018c612c4a565b91508382036060850152613106828b612c4a565b608085019990995260a0840197909752505060c081019390935290151560e083015290911661010090910152949350505050565b60006020828403121561314c57600080fd5b612c1f82612cd0565b6001600160a01b038716815260c06020820181905260009061317990830188612c4a565b828103604084015261318b8188612c4a565b606084019690965250506080810192909252151560a0909101529392505050565b6503220b8381d160d51b8152600082516131cd816006850160208701612c26565b9190910160060192915050565b8183823760009101908152919050565b600181811c908216806131fe57607f821691505b60208210810361167a57634e487b7160e01b600052602260045260246000fd5b6c02a3930b739b337b936b2b91d1609d1b81526000825161324681600d850160208701612c26565b91909101600d0192915050565b60006020828403121561326557600080fd5b8151612c1f81612b20565b60208082526010908201526f125b9d985b1a59081bdc99195c88125160821b604082015260600190565b634e487b7160e01b600052603260045260246000fd5b634e487b7160e01b600052601160045260246000fd5b6000600182016132d8576132d86132b0565b5060010190565b818103818111156132f2576132f26132b0565b92915050565b601f821115612ad257600081815260208120601f850160051c8101602086101561331f5750805b601f850160051c820191505b81811015610d1d5782815560010161332b565b815167ffffffffffffffff81111561335857613358612f1b565b61336c8161336684546131ea565b846132f8565b602080601f8311600181146133a157600084156133895750858301515b600019600386901b1c1916600185901b178555610d1d565b600085815260208120601f198616915b828110156133d0578886015182559484019460019091019084016133b1565b50858210156133ee5787850151600019600388901b60f8161c191681555b5050505050600190811b01905550565b60a08152600061341160a0830188612c4a565b82810360208401526134238188612c4a565b6040840196909652505091151560608301526001600160a01b031660809091015292915050565b67ffffffffffffffff83111561346257613462612f1b565b6134768361347083546131ea565b836132f8565b6000601f8411600181146134aa57600085156134925750838201355b600019600387901b1c1916600186901b178355612303565b600083815260209020601f19861690835b828110156134db57868501358255602094850194600190920191016134bb565b50868210156134f85760001960f88860031b161c19848701351681555b505060018560011b0183555050505050565b60208082526023908201527f63616c6c6572206973206e6f7420746865206f776e6572206f72206f706572616040820152623a37b960e91b606082015260800190565b6a0213ab1b5b2ba20b8381d160ad1b81526000825161357381600b850160208701612c26565b91909101600b0192915050565b61358981612c9f565b9052565b80516001600160a01b0390811683526020808301519091169083015260408101516000906135ba81612c9f565b80604085015250606082015160806060850152612ff36080850182612c4a565b606081526135f46060820185516001600160a01b03169052565b60006020850151610120806080850152613612610180850183612c4a565b9150604087015161362660a0860182613580565b5060608701516001600160a01b03811660c08601525060808701516001600160a01b03811660e08601525060a0870151610100818187015260c08901519150605f1980878603018488015261367b8584612c4a565b945060e08a0151935061369b61014088018567ffffffffffffffff169052565b818a0151935080878603016101608801525050506136b98282612c4a565b91505084602084015282810360408401526136d4818561358d565b9695505050505050565b6000602082840312156136f057600080fd5b81518015158114612c1f57600080fd5b6a027b13532b1ba20b8381d160ad1b81526000825161357381600b850160208701612c26565b69023b937bab820b8381d160b51b81526000825161374b81600a850160208701612c26565b91909101600a0192915050565b6020808252602b908201527f496e697469616c697a61626c653a20636f6e7472616374206973206e6f74206960408201526a6e697469616c697a696e6760a81b606082015260800190565b6001600160a01b03851681526080602082018190526000906137c790830186612c4a565b84604084015282810360608401526137df818561358d565b979650505050505050565b600080604083850312156137fd57600080fd5b505080516020909101519092909150565b60006020828403121561382057600080fd5b5051919050565b80820281158282048414176132f2576132f26132b0565b808201808211156132f2576132f26132b056fea2646970667358221220a1b9efca46bf7e0a4ed4481120b76e5853186110b46a2a9e50834bed81ac490e64736f6c63430008130033",
  "immutableReferences": {},
  "source": "// SPDX-License-Identifier: MIT\npragma solidity ^0.8.0;\n\nimport \"@bnb-chain/greenfield-contracts-sdk/BucketApp.sol\";\nimport \"@bnb-chain/greenfield-contracts-sdk/ObjectApp.sol\";\nimport \"@bnb-chain/greenfield-contracts-sdk/GroupApp.sol\";\nimport \"@bnb-chain/greenfield-contracts-sdk//interface/IERC1155.sol\";\nimport \"@bnb-chain/greenfield-contracts-sdk//interface/IERC721Nontransferable.sol\";\nimport \"@bnb-chain/greenfield-contracts-sdk//interface/IERC1155Nontransferable.sol\";\nimport \"@openzeppelin/contracts/utils/Strings.sol\";\n\ncontract KNexus is BucketApp, ObjectApp, GroupApp {\n    /*----------------- constants -----------------*/\n    // error code\n    // 0-3: defined in `baseApp`\n    string public constant ERROR_INVALID_NAME = \"4\";\n    string public constant ERROR_RESOURCE_EXISTED = \"5\";\n    string public constant ERROR_INVALID_PRICE = \"6\";\n    string public constant ERROR_GROUP_NOT_EXISTED = \"7\";\n    string public constant ERROR_DATA_NOT_ONSHELF = \"8\";\n    string public constant ERROR_NOT_ENOUGH_VALUE = \"9\";\n\n    // admins\n    address public owner;\n    mapping(address => bool) public operators;\n\n    // system contract\n    address public bucketToken;\n    address public objectToken;\n    address public groupToken;\n    address public memberToken;\n\n    // tokenId => series name\n    mapping(uint256 => string) public seriesName;\n    // series name => tokenId\n    mapping(string => uint256) public seriesId;\n\n    // order\n    struct Order {\n        uint256 id;\n        address creator;\n        string name;\n        string description;\n        uint256 dataId;\n        uint256 groupId;\n        uint256 price;\n        bool isAvailable;\n        address purchaser;\n    }\n\n    // order mapping\n    mapping(uint256 => Order) public orders;\n    uint256 public orderCount;\n\n    event OrderCreated(\n        uint256 indexed id,\n        string name,\n        string description,\n        uint256 indexed dataId,\n        uint256 groupId,\n        uint256 indexed price,\n        bool isAvailable,\n        address purchaser\n    );\n    event OrderPurchased(uint256 indexed id);\n    event OrderRemoved(uint256 indexed id);\n\n    event OwnershipTransferred(\n        address indexed previousOwner,\n        address indexed newOwner\n    );\n\n    modifier onlyOwner() {\n        require(msg.sender == owner, \"caller is not the owner\");\n        _;\n    }\n\n    modifier onlyOperator() {\n        require(\n            msg.sender == owner || _isOperator(msg.sender),\n            \"caller is not the owner or operator\"\n        );\n        _;\n    }\n\n    function initialize(\n        address _crossChain,\n        address _bucketHub,\n        address _objectHub,\n        address _groupHub,\n        address _paymentAddress,\n        uint256 _callbackGasLimit,\n        address _refundAddress,\n        uint8 _failureHandleStrategy,\n        address _owner\n    ) public initializer {\n        require(\n            _owner != address(0),\n            string.concat(\"Transformer: \", ERROR_INVALID_CALLER)\n        );\n        _transferOwnership(_owner);\n\n        bucketToken = IBucketHub(_bucketHub).ERC721Token();\n        // IBucketHub(_bucketHub).grant(address(this), 3, 0);\n\n        objectToken = IObjectHub(_objectHub).ERC721Token();\n        // IObjectHub(_objectHub).grant(address(this), 2, 0);\n\n        groupToken = IGroupHub(_groupHub).ERC721Token();\n        // IGroupHub(_groupHub).grant(address(this), 3, 0);\n\n        memberToken = IGroupHub(_groupHub).ERC1155Token();\n\n        __base_app_init_unchained(\n            _crossChain,\n            _callbackGasLimit,\n            _refundAddress,\n            _failureHandleStrategy\n        );\n        __bucket_app_init_unchained(_bucketHub, _paymentAddress);\n        __group_app_init_unchained(_groupHub);\n        __object_app_init_unchained(_objectHub);\n    }\n\n    /**\n     * @notice  . greenfieldCall\n     * @dev     .\n     * @param   status  .\n     * @param   resoureceType  .\n     * @param   operationType  .\n     * @param   resourceId  .\n     * @param   callbackData  .\n     */\n    function greenfieldCall(\n        uint32 status,\n        uint8 resoureceType,\n        uint8 operationType,\n        uint256 resourceId,\n        bytes calldata callbackData\n    ) external override(BucketApp, ObjectApp, GroupApp) {\n        require(\n            msg.sender == crossChain,\n            string.concat(\"dApp: \", ERROR_INVALID_CALLER)\n        );\n\n        if (resoureceType == RESOURCE_BUCKET) {\n            _bucketGreenfieldCall(\n                status,\n                operationType,\n                resourceId,\n                callbackData\n            );\n        } else if (resoureceType == RESOURCE_OBJECT) {\n            _objectGreenfieldCall(\n                status,\n                operationType,\n                resourceId,\n                callbackData\n            );\n        } else if (resoureceType == RESOURCE_GROUP) {\n            _groupGreenfieldCall(\n                status,\n                operationType,\n                resourceId,\n                callbackData\n            );\n        } else {\n            revert(string.concat(\"dApp: \", ERROR_INVALID_RESOURCE));\n        }\n    }\n\n    /**\n     * @notice  . createSeries\n     * @dev     .\n     * @param   name  .\n     * @param   visibility  .\n     * @param   chargedReadQuota  .\n     * @param   spAddress  .\n     * @param   expireHeight  .\n     * @param   sig  .\n     */\n    function createSeries(\n        string calldata name,\n        BucketStorage.BucketVisibilityType visibility,\n        uint64 chargedReadQuota,\n        address spAddress,\n        uint256 expireHeight,\n        bytes calldata sig\n    ) external payable {\n        require(\n            bytes(name).length > 0,\n            string.concat(\"dApp: \", ERROR_INVALID_NAME)\n        );\n        require(\n            seriesId[name] == 0,\n            string.concat(\"dApp: \", ERROR_RESOURCE_EXISTED)\n        );\n\n        bytes memory _callbackData = bytes(name); // use name as callback data\n        _createBucket(\n            msg.sender,\n            name,\n            visibility,\n            chargedReadQuota,\n            spAddress,\n            expireHeight,\n            sig,\n            _callbackData\n        );\n    }\n\n    /**\n     * @notice  .\n     * @dev     .\n     * @param   name  .\n     * @param   tokenId  .\n     */\n    function registerSeries(string calldata name, uint256 tokenId) external {\n        require(\n            IERC721NonTransferable(bucketToken).ownerOf(tokenId) == msg.sender,\n            string.concat(\"dApp: \", ERROR_INVALID_CALLER)\n        );\n        require(\n            bytes(name).length > 0,\n            string.concat(\"dApp: \", ERROR_INVALID_NAME)\n        );\n        require(\n            seriesId[name] == 0,\n            string.concat(\"dApp: \", ERROR_RESOURCE_EXISTED)\n        );\n\n        seriesName[tokenId] = name;\n        seriesId[name] = tokenId;\n    }\n\n    /**\n     * @notice  .\n     * @dev     .\n     * @param   name  .\n     */\n    function createGroup(string memory name) public payable {\n        bytes memory _callbackData = bytes(name); // use name as callback data\n        _createGroup(msg.sender, name, _callbackData);\n    }\n\n    /**\n     * @notice  .\n     * @dev     .\n     * @param   name  .\n     * @param   description  .\n     * @param   _dataId  .\n     * @param   _groupId  .\n     * @param   price  .\n     */\n    function createOrder(\n        string memory name,\n        string memory description,\n        uint256 _dataId,\n        uint256 _groupId,\n        uint256 price\n    ) external {\n        /*\n        require(\n            IERC721NonTransferable(objectToken).ownerOf(_dataId) == msg.sender,\n            string.concat(\"dApp: \", ERROR_INVALID_CALLER)\n        );\n\n        require(\n            IERC721NonTransferable(groupToken).ownerOf(_groupId) == msg.sender,\n            string.concat(\"dApp: \", ERROR_INVALID_CALLER)\n        );\n\n        */\n\n        orderCount++;\n\n        Order memory _order = Order(\n            orderCount,\n            msg.sender,\n            name,\n            description,\n            _dataId,\n            _groupId,\n            price,\n            true,\n            address(0)\n        );\n\n        orders[orderCount] = _order;\n        emit OrderCreated(\n            orderCount,\n            _order.name,\n            _order.description,\n            _order.dataId,\n            _order.groupId,\n            _order.price,\n            _order.isAvailable,\n            _order.purchaser\n        );\n    }\n\n    /**\n     * @notice  .\n     * @dev     .\n     * @param   id  .\n     * @return  address  .\n     * @return  string  .\n     * @return  string  .\n     * @return  uint256  .\n     * @return  uint256  .\n     * @return  bool  .\n     */\n    function getOrder(\n        uint256 id\n    )\n        public\n        view\n        returns (address, string memory, string memory, uint256, uint256, bool)\n    {\n        require(id <= orderCount && id > 0, \"Invalid order ID\");\n        Order storage order = orders[id];\n        return (\n            order.creator,\n            order.name,\n            order.description,\n            order.dataId,\n            order.price,\n            order.isAvailable\n        );\n    }\n\n    /**\n     * @notice  .\n     * @dev     .\n     * @param   dataId  .\n     * @return  bool  .\n     */\n    function isPublished(uint256 dataId) public view returns (bool) {\n        for (uint256 i = 1; i <= orderCount; i++) {\n            Order storage order = orders[i];\n            if (order.dataId == dataId) {\n                return true;\n            }\n        }\n\n        return false;\n    }\n\n    /**\n     * @notice  .\n     * @dev     .\n     * @return  Order[]  .\n     */\n    function getAllOrders() public view returns (Order[] memory) {\n        Order[] memory allOrders = new Order[](orderCount);\n        for (uint256 i = 1; i <= orderCount; i++) {\n            allOrders[i - 1] = orders[i];\n        }\n        return allOrders;\n    }\n\n    function removeOrder(uint256 id) public {\n        require(id <= orderCount && id > 0, \"Invalid order ID\");\n        Order storage order = orders[id];\n        require(order.isAvailable, \"Order is not available\");\n        require(order.creator == msg.sender, \"invalid caller\");\n\n        order.isAvailable = false;\n        emit OrderRemoved(id);\n    }\n\n    /**\n     * @notice  .\n     * @dev     .\n     * @param   id  .\n     */\n    function purchaseOrder(uint256 id) external payable {\n        require(id <= orderCount && id > 0, \"Invalid order ID\");\n        Order storage order = orders[id];\n        require(order.isAvailable, \"Order is not available\");\n        require(msg.value == order.price, \"Incorrect payment amount\");\n\n        order.isAvailable = false;\n        order.purchaser = msg.sender;\n\n        /*\n        address _owner = IERC721NonTransferable(groupToken).ownerOf(\n            order.groupId\n        );\n\n        */\n        address[] memory _member = new address[](1);\n        _member[0] = msg.sender;\n\n        // _updateGroup(_owner, order.groupId, UPDATE_ADD, _member);\n\n        (bool success, ) = payable(order.creator).call{value: order.price}(\"\");\n\n        require(success, \"purchase fail\");\n        emit OrderPurchased(id);\n    }\n\n    function retryPackage(uint8 resoureceType) external override {\n        if (resoureceType == RESOURCE_BUCKET) {\n            _retryBucketPackage();\n        } else if (resoureceType == RESOURCE_OBJECT) {\n            _retryObjectPackage();\n        } else if (resoureceType == RESOURCE_GROUP) {\n            _retryGroupPackage();\n        } else {\n            revert(string.concat(\"dApp: \", ERROR_INVALID_RESOURCE));\n        }\n    }\n\n    function skipPackage(uint8 resoureceType) external override {\n        if (resoureceType == RESOURCE_BUCKET) {\n            _skipBucketPackage();\n        } else if (resoureceType == RESOURCE_OBJECT) {\n            _skipObjectPackage();\n        } else if (resoureceType == RESOURCE_GROUP) {\n            _skipGroupPackage();\n        } else {\n            revert(string.concat(\"dApp: \", ERROR_INVALID_RESOURCE));\n        }\n    }\n\n    function addOperator(address newOperator) public onlyOwner onlyOperator {\n        operators[newOperator] = true;\n    }\n\n    function removeOperator(address operator) public onlyOwner onlyOperator {\n        delete operators[operator];\n    }\n\n    /*----------------- internal functions -----------------*/\n    function _transferOwnership(address newOwner) internal {\n        emit OwnershipTransferred(owner, newOwner);\n        owner = newOwner;\n    }\n\n    function _isOperator(address account) internal view returns (bool) {\n        return operators[account];\n    }\n}\n",
  "sourcePath": "/Users/wei/Desktop/project/treasury/greenfiled-knn3-contract/contracts/KNexus.sol",
  "compiler": {
    "name": "solc",
    "version": "0.8.19+commit.7dd6d404.Emscripten.clang"
  },
  "schemaVersion": "3.4.13",
  "updatedAt": "2023-05-13T12:21:32.834Z",
  "devdoc": {
    "events": {
      "Initialized(uint8)": {
        "details": "Triggered when the contract has been initialized or reinitialized."
      }
    },
    "kind": "dev",
    "methods": {
      "createGroup(string)": {
        "details": ".",
        "params": {
          "name": "."
        }
      },
      "createOrder(string,string,uint256,uint256,uint256)": {
        "details": ".",
        "params": {
          "_dataId": ".",
          "_groupId": ".",
          "description": ".",
          "name": ".",
          "price": "."
        }
      },
      "createSeries(string,uint8,uint64,address,uint256,bytes)": {
        "details": ".",
        "params": {
          "chargedReadQuota": ".",
          "expireHeight": ".",
          "name": ".",
          "sig": ".",
          "spAddress": ".",
          "visibility": "."
        }
      },
      "getAllOrders()": {
        "details": ".",
        "returns": {
          "_0": "Order[]  ."
        }
      },
      "getOrder(uint256)": {
        "details": ".",
        "params": {
          "id": "."
        },
        "returns": {
          "_0": "address  .",
          "_1": "string  .",
          "_2": "string  .",
          "_3": "uint256  .",
          "_4": "uint256  .",
          "_5": "bool  ."
        }
      },
      "greenfieldCall(uint32,uint8,uint8,uint256,bytes)": {
        "details": ".",
        "params": {
          "callbackData": ".",
          "operationType": ".",
          "resourceId": ".",
          "resoureceType": ".",
          "status": "."
        }
      },
      "isPublished(uint256)": {
        "details": ".",
        "params": {
          "dataId": "."
        },
        "returns": {
          "_0": "bool  ."
        }
      },
      "purchaseOrder(uint256)": {
        "details": ".",
        "params": {
          "id": "."
        }
      },
      "registerSeries(string,uint256)": {
        "details": ".",
        "params": {
          "name": ".",
          "tokenId": "."
        }
      }
    },
    "version": 1
  },
  "userdoc": {
    "kind": "user",
    "methods": {
      "createGroup(string)": {
        "notice": "."
      },
      "createOrder(string,string,uint256,uint256,uint256)": {
        "notice": "."
      },
      "createSeries(string,uint8,uint64,address,uint256,bytes)": {
        "notice": ". createSeries"
      },
      "getAllOrders()": {
        "notice": "."
      },
      "getOrder(uint256)": {
        "notice": "."
      },
      "greenfieldCall(uint32,uint8,uint8,uint256,bytes)": {
        "notice": ". greenfieldCall"
      },
      "isPublished(uint256)": {
        "notice": "."
      },
      "purchaseOrder(uint256)": {
        "notice": "."
      },
      "registerSeries(string,uint256)": {
        "notice": "."
      }
    },
    "version": 1
  }
}